{
  "_format": "hh-sol-artifact-1",
  "contractName": "ICO",
  "sourceName": "contracts/ICO.sol",
  "abi": [
    {
      "inputs": [
        {
          "internalType": "address",
          "name": "_token",
          "type": "address"
        },
        {
          "internalType": "uint256",
          "name": "_startTime",
          "type": "uint256"
        },
        {
          "internalType": "uint256",
          "name": "_endTime",
          "type": "uint256"
        }
      ],
      "stateMutability": "nonpayable",
      "type": "constructor"
    },
    {
      "anonymous": false,
      "inputs": [
        {
          "indexed": true,
          "internalType": "address",
          "name": "buyer",
          "type": "address"
        },
        {
          "indexed": false,
          "internalType": "uint256",
          "name": "amount",
          "type": "uint256"
        }
      ],
      "name": "Claim",
      "type": "event"
    },
    {
      "anonymous": false,
      "inputs": [
        {
          "indexed": true,
          "internalType": "address",
          "name": "buyer",
          "type": "address"
        },
        {
          "indexed": false,
          "internalType": "uint256",
          "name": "amount",
          "type": "uint256"
        }
      ],
      "name": "Deposit",
      "type": "event"
    },
    {
      "anonymous": false,
      "inputs": [
        {
          "indexed": true,
          "internalType": "address",
          "name": "buyer",
          "type": "address"
        },
        {
          "indexed": false,
          "internalType": "uint256",
          "name": "amount",
          "type": "uint256"
        }
      ],
      "name": "Withdraw",
      "type": "event"
    },
    {
      "inputs": [],
      "name": "active",
      "outputs": [
        {
          "internalType": "bool",
          "name": "",
          "type": "bool"
        }
      ],
      "stateMutability": "view",
      "type": "function"
    },
    {
      "inputs": [],
      "name": "claim",
      "outputs": [],
      "stateMutability": "payable",
      "type": "function"
    },
    {
      "inputs": [],
      "name": "deposit",
      "outputs": [],
      "stateMutability": "payable",
      "type": "function"
    },
    {
      "inputs": [
        {
          "internalType": "address",
          "name": "",
          "type": "address"
        }
      ],
      "name": "deposits",
      "outputs": [
        {
          "internalType": "uint256",
          "name": "",
          "type": "uint256"
        }
      ],
      "stateMutability": "view",
      "type": "function"
    },
    {
      "inputs": [],
      "name": "endICO",
      "outputs": [],
      "stateMutability": "nonpayable",
      "type": "function"
    },
    {
      "inputs": [],
      "name": "endTime",
      "outputs": [
        {
          "internalType": "uint256",
          "name": "",
          "type": "uint256"
        }
      ],
      "stateMutability": "view",
      "type": "function"
    },
    {
      "inputs": [],
      "name": "hardCap",
      "outputs": [
        {
          "internalType": "uint256",
          "name": "",
          "type": "uint256"
        }
      ],
      "stateMutability": "view",
      "type": "function"
    },
    {
      "inputs": [],
      "name": "maxPurchaseAmount",
      "outputs": [
        {
          "internalType": "uint256",
          "name": "",
          "type": "uint256"
        }
      ],
      "stateMutability": "view",
      "type": "function"
    },
    {
      "inputs": [],
      "name": "minPurchaseAmount",
      "outputs": [
        {
          "internalType": "uint256",
          "name": "",
          "type": "uint256"
        }
      ],
      "stateMutability": "view",
      "type": "function"
    },
    {
      "inputs": [],
      "name": "owner",
      "outputs": [
        {
          "internalType": "address",
          "name": "",
          "type": "address"
        }
      ],
      "stateMutability": "view",
      "type": "function"
    },
    {
      "inputs": [],
      "name": "rate",
      "outputs": [
        {
          "internalType": "uint256",
          "name": "",
          "type": "uint256"
        }
      ],
      "stateMutability": "view",
      "type": "function"
    },
    {
      "inputs": [],
      "name": "softCap",
      "outputs": [
        {
          "internalType": "uint256",
          "name": "",
          "type": "uint256"
        }
      ],
      "stateMutability": "view",
      "type": "function"
    },
    {
      "inputs": [],
      "name": "startTime",
      "outputs": [
        {
          "internalType": "uint256",
          "name": "",
          "type": "uint256"
        }
      ],
      "stateMutability": "view",
      "type": "function"
    },
    {
      "inputs": [],
      "name": "token",
      "outputs": [
        {
          "internalType": "contract XXXToken",
          "name": "",
          "type": "address"
        }
      ],
      "stateMutability": "view",
      "type": "function"
    },
    {
      "inputs": [],
      "name": "totalDeposit",
      "outputs": [
        {
          "internalType": "uint256",
          "name": "",
          "type": "uint256"
        }
      ],
      "stateMutability": "view",
      "type": "function"
    },
    {
      "inputs": [],
      "name": "withdraw",
      "outputs": [],
      "stateMutability": "payable",
      "type": "function"
    }
  ],
  "bytecode": "0x608060405267016345785d8a0000600355670de0b6b3a7640000600455662386f26fc1000060055566b1a2bc2ec5000060065560006007556103e8600a553480156200004a57600080fd5b506040516200160c3803806200160c8339818101604052810190620000709190620001c8565b336000806101000a81548173ffffffffffffffffffffffffffffffffffffffff021916908373ffffffffffffffffffffffffffffffffffffffff16021790555082600160006101000a81548173ffffffffffffffffffffffffffffffffffffffff021916908373ffffffffffffffffffffffffffffffffffffffff16021790555081600881905550806009819055506001600b60006101000a81548160ff02191690831515021790555050505062000224565b600080fd5b600073ffffffffffffffffffffffffffffffffffffffff82169050919050565b6000620001558262000128565b9050919050565b620001678162000148565b81146200017357600080fd5b50565b60008151905062000187816200015c565b92915050565b6000819050919050565b620001a2816200018d565b8114620001ae57600080fd5b50565b600081519050620001c28162000197565b92915050565b600080600060608486031215620001e457620001e362000123565b5b6000620001f48682870162000176565b93505060206200020786828701620001b1565b92505060406200021a86828701620001b1565b9150509250925092565b6113d880620002346000396000f3fe6080604052600436106100f35760003560e01c8063906a26e01161008a578063f952fcad11610059578063f952fcad14610285578063fb86a404146102b0578063fc0c546a146102db578063fc7e286d14610306576100f3565b8063906a26e0146101fa578063b47dbf2214610225578063d0e30db014610250578063f6153ccd1461025a576100f3565b80634e71d92d116100c65780634e71d92d146101835780634f2484091461018d57806378e97925146101a45780638da5cb5b146101cf576100f3565b806302fb0c5e146100f85780632c4e722e146101235780633197cbb61461014e5780633ccfd60b14610179575b600080fd5b34801561010457600080fd5b5061010d610343565b60405161011a9190610c2f565b60405180910390f35b34801561012f57600080fd5b50610138610356565b6040516101459190610c63565b60405180910390f35b34801561015a57600080fd5b5061016361035c565b6040516101709190610c63565b60405180910390f35b610181610362565b005b61018b61050e565b005b34801561019957600080fd5b506101a26107f1565b005b3480156101b057600080fd5b506101b961089c565b6040516101c69190610c63565b60405180910390f35b3480156101db57600080fd5b506101e46108a2565b6040516101f19190610cbf565b60405180910390f35b34801561020657600080fd5b5061020f6108c6565b60405161021c9190610c63565b60405180910390f35b34801561023157600080fd5b5061023a6108cc565b6040516102479190610c63565b60405180910390f35b6102586108d2565b005b34801561026657600080fd5b5061026f610b98565b60405161027c9190610c63565b60405180910390f35b34801561029157600080fd5b5061029a610b9e565b6040516102a79190610c63565b60405180910390f35b3480156102bc57600080fd5b506102c5610ba4565b6040516102d29190610c63565b60405180910390f35b3480156102e757600080fd5b506102f0610baa565b6040516102fd9190610d39565b60405180910390f35b34801561031257600080fd5b5061032d60048036038101906103289190610d85565b610bd0565b60405161033a9190610c63565b60405180910390f35b600b60009054906101000a900460ff1681565b600a5481565b60095481565b6009544210156103a7576040517f08c379a000000000000000000000000000000000000000000000000000000000815260040161039e90610e0f565b60405180910390fd5b600354600754106103ed576040517f08c379a00000000000000000000000000000000000000000000000000000000081526004016103e490610e7b565b60405180910390fd5b6000600260003373ffffffffffffffffffffffffffffffffffffffff1673ffffffffffffffffffffffffffffffffffffffff1681526020019081526020016000205490506000600260003373ffffffffffffffffffffffffffffffffffffffff1673ffffffffffffffffffffffffffffffffffffffff168152602001908152602001600020819055503373ffffffffffffffffffffffffffffffffffffffff166108fc829081150290604051600060405180830381858888f193505050501580156104bc573d6000803e3d6000fd5b503373ffffffffffffffffffffffffffffffffffffffff167f884edad9ce6fa2440d8a54cc123490eb96d2768479d49ff9c7366125a9424364826040516105039190610c63565b60405180910390a250565b600954421015610553576040517f08c379a000000000000000000000000000000000000000000000000000000000815260040161054a90610e0f565b60405180910390fd5b600354600754101561059a576040517f08c379a000000000000000000000000000000000000000000000000000000000815260040161059190610ee7565b60405180910390fd5b60006105f0600a54600260003373ffffffffffffffffffffffffffffffffffffffff1673ffffffffffffffffffffffffffffffffffffffff16815260200190815260200160002054610be890919063ffffffff16565b905060008054906101000a900473ffffffffffffffffffffffffffffffffffffffff1673ffffffffffffffffffffffffffffffffffffffff166108fc600260003373ffffffffffffffffffffffffffffffffffffffff1673ffffffffffffffffffffffffffffffffffffffff168152602001908152602001600020549081150290604051600060405180830381858888f19350505050158015610697573d6000803e3d6000fd5b506000600260003373ffffffffffffffffffffffffffffffffffffffff1673ffffffffffffffffffffffffffffffffffffffff16815260200190815260200160002081905550600160009054906101000a900473ffffffffffffffffffffffffffffffffffffffff1673ffffffffffffffffffffffffffffffffffffffff166323b872dd60008054906101000a900473ffffffffffffffffffffffffffffffffffffffff1633846040518463ffffffff1660e01b815260040161075c93929190610f07565b6020604051808303816000875af115801561077b573d6000803e3d6000fd5b505050506040513d601f19601f8201168201806040525081019061079f9190610f6a565b503373ffffffffffffffffffffffffffffffffffffffff167f47cee97cb7acd717b3c0aa1435d004cd5b3c8c57d70dbceb4e4458bbd60e39d4826040516107e69190610c63565b60405180910390a250565b60008054906101000a900473ffffffffffffffffffffffffffffffffffffffff1673ffffffffffffffffffffffffffffffffffffffff163373ffffffffffffffffffffffffffffffffffffffff161461087f576040517f08c379a000000000000000000000000000000000000000000000000000000000815260040161087690611009565b60405180910390fd5b6000600b60006101000a81548160ff021916908315150217905550565b60085481565b60008054906101000a900473ffffffffffffffffffffffffffffffffffffffff1681565b60035481565b60055481565b600554341015610917576040517f08c379a000000000000000000000000000000000000000000000000000000000815260040161090e9061109b565b60405180910390fd5b60065434111561095c576040517f08c379a00000000000000000000000000000000000000000000000000000000081526004016109539061112d565b60405180910390fd5b343373ffffffffffffffffffffffffffffffffffffffff1631116109b5576040517f08c379a00000000000000000000000000000000000000000000000000000000081526004016109ac90611199565b60405180910390fd5b6008544210156109fa576040517f08c379a00000000000000000000000000000000000000000000000000000000081526004016109f190611205565b60405180910390fd5b600954421115610a3f576040517f08c379a0000000000000000000000000000000000000000000000000000000008152600401610a3690611271565b60405180910390fd5b600454610a5734600754610bfe90919063ffffffff16565b1115610a98576040517f08c379a0000000000000000000000000000000000000000000000000000000008152600401610a8f906112dd565b60405180910390fd5b610aea34600260003373ffffffffffffffffffffffffffffffffffffffff1673ffffffffffffffffffffffffffffffffffffffff16815260200190815260200160002054610bfe90919063ffffffff16565b600260003373ffffffffffffffffffffffffffffffffffffffff1673ffffffffffffffffffffffffffffffffffffffff16815260200190815260200160002081905550610b4234600754610bfe90919063ffffffff16565b6007819055503373ffffffffffffffffffffffffffffffffffffffff167fe1fffcc4923d04b559f4d29a8bfc6cda04eb5b0d3c460751c2402c5c5cc9109c34604051610b8e9190610c63565b60405180910390a2565b60075481565b60065481565b60045481565b600160009054906101000a900473ffffffffffffffffffffffffffffffffffffffff1681565b60026020528060005260406000206000915090505481565b60008183610bf6919061132c565b905092915050565b60008183610c0c919061136e565b905092915050565b60008115159050919050565b610c2981610c14565b82525050565b6000602082019050610c446000830184610c20565b92915050565b6000819050919050565b610c5d81610c4a565b82525050565b6000602082019050610c786000830184610c54565b92915050565b600073ffffffffffffffffffffffffffffffffffffffff82169050919050565b6000610ca982610c7e565b9050919050565b610cb981610c9e565b82525050565b6000602082019050610cd46000830184610cb0565b92915050565b6000819050919050565b6000610cff610cfa610cf584610c7e565b610cda565b610c7e565b9050919050565b6000610d1182610ce4565b9050919050565b6000610d2382610d06565b9050919050565b610d3381610d18565b82525050565b6000602082019050610d4e6000830184610d2a565b92915050565b600080fd5b610d6281610c9e565b8114610d6d57600080fd5b50565b600081359050610d7f81610d59565b92915050565b600060208284031215610d9b57610d9a610d54565b5b6000610da984828501610d70565b91505092915050565b600082825260208201905092915050565b7f49434f20686173206e6f7420656e646564207965740000000000000000000000600082015250565b6000610df9601583610db2565b9150610e0482610dc3565b602082019050919050565b60006020820190508181036000830152610e2881610dec565b9050919050565b7f536f667420636170207265616368656400000000000000000000000000000000600082015250565b6000610e65601083610db2565b9150610e7082610e2f565b602082019050919050565b60006020820190508181036000830152610e9481610e58565b9050919050565b7f536f667420636170206e6f742072656163686564000000000000000000000000600082015250565b6000610ed1601483610db2565b9150610edc82610e9b565b602082019050919050565b60006020820190508181036000830152610f0081610ec4565b9050919050565b6000606082019050610f1c6000830186610cb0565b610f296020830185610cb0565b610f366040830184610c54565b949350505050565b610f4781610c14565b8114610f5257600080fd5b50565b600081519050610f6481610f3e565b92915050565b600060208284031215610f8057610f7f610d54565b5b6000610f8e84828501610f55565b91505092915050565b7f4f6e6c79206f776e65722063616e2063616c6c20746869732066756e6374696f60008201527f6e00000000000000000000000000000000000000000000000000000000000000602082015250565b6000610ff3602183610db2565b9150610ffe82610f97565b604082019050919050565b6000602082019050818103600083015261102281610fe6565b9050919050565b7f416d6f756e74206973206c657373207468616e206d696e696d756d207075726360008201527f6861736520616d6f756e74000000000000000000000000000000000000000000602082015250565b6000611085602b83610db2565b915061109082611029565b604082019050919050565b600060208201905081810360008301526110b481611078565b9050919050565b7f416d6f756e74206973206d6f7265207468616e206d6178696d756d207075726360008201527f6861736520616d6f756e74000000000000000000000000000000000000000000602082015250565b6000611117602b83610db2565b9150611122826110bb565b604082019050919050565b600060208201905081810360008301526111468161110a565b9050919050565b7f496e73756666696369656e742062616c616e6365000000000000000000000000600082015250565b6000611183601483610db2565b915061118e8261114d565b602082019050919050565b600060208201905081810360008301526111b281611176565b9050919050565b7f49434f20686173206e6f74207374617274656420796574000000000000000000600082015250565b60006111ef601783610db2565b91506111fa826111b9565b602082019050919050565b6000602082019050818103600083015261121e816111e2565b9050919050565b7f49434f2068617320656e64656400000000000000000000000000000000000000600082015250565b600061125b600d83610db2565b915061126682611225565b602082019050919050565b6000602082019050818103600083015261128a8161124e565b9050919050565b7f4861726420636170207265616368656400000000000000000000000000000000600082015250565b60006112c7601083610db2565b91506112d282611291565b602082019050919050565b600060208201905081810360008301526112f6816112ba565b9050919050565b7f4e487b7100000000000000000000000000000000000000000000000000000000600052601160045260246000fd5b600061133782610c4a565b915061134283610c4a565b925082820261135081610c4a565b91508282048414831517611367576113666112fd565b5b5092915050565b600061137982610c4a565b915061138483610c4a565b925082820190508082111561139c5761139b6112fd565b5b9291505056fea2646970667358221220215fa1b8b25f2ff12ec27427060576ecfafc53ffe32325b15e79a03bcd93ac4c64736f6c63430008120033",
  "linkReferences": {},
  "deployedLinkReferences": {}
}